:020000040000FA
:10000000780200106D01000075010000770100000A
:10001000790100007B0100007D010000000000006C
:100020000000000000000000000000007F01000050
:100030008101000000000000830100008501000034
:10004000870100008701000087010000010E000009
:100050008701000087010000870100008701000080
:100060008701000087010000870100008701000070
:100070008701000087010000870100008701000060
:100080008701000087010000870100008701000050
:100090008701000087010000870100008701000040
:1000A0008701000087010000870100008701000030
:1000B0008701000087010000870100008701000020
:1000C00087010000870100008701000000F002F8AE
:1000D00000F03AF80AA090E8000C82448344AAF1A8
:1000E0000107DA4501D100F02FF8AFF2090EBAE8A6
:1000F0000F0013F0010F18BFFB1A43F0010318475C
:10010000A8240000C8240000103A24BF78C878C191
:10011000FAD8520724BF30C830C144BF04680C600D
:10012000704700000023002400250026103A28BF55
:1001300078C1FBD8520728BF30C148BF0B60704759
:100140001FB51FBD10B510BD00F031F81146FFF707
:10015000F7FF00F0B7FE00F04FF803B4FFF7F2FF2F
:1001600003BC00F057F8000000BF70470948804703
:1001700009480047FEE7FEE7FEE7FEE7FEE7FEE789
:10018000FEE7FEE7FEE7FEE704480549034A054BA4
:1001900070470000C10C0000CD0000007800001086
:1001A000780200107800001070477047704775465D
:1001B00000F02CF8AE4605006946534620F00700D3
:1001C000854618B020B5FFF7DFFFBDE820404FF0AF
:1001D00000064FF000074FF000084FF0000B21F031
:1001E0000701AC46ACE8C009ACE8C009ACE8C009FE
:1001F000ACE8C0098D46704710B50446AFF30080E7
:100200002046BDE81040FFF7A8BF00000048704737
:100210001800001001491820ABBEFEE726000200BE
:100220007047000070B5054600F0EEFC15480088E8
:1002300048F68911884208D100214E2000F020FFA5
:1002400000214F2000F01CFF07E00021202000F0DB
:1002500017FF0021212000F013FF4FF480000A490E
:10026000C861222000F0BAFE00F0FAFE002403E08C
:10027000284600F0E3FE641CB4F5963FF8D300F086
:10028000F7FE70BD1400001000C009202DE9F041F8
:1002900005460E461446A4F12000C4B204EB440304
:1002A000054F07EB031205EB4503D900300100F0C1
:1002B00027F8BDE8F0810000A810000070B50646E0
:1002C0000D46144600F0A0FC06E014F8012B294668
:1002D0006D1C3046FFF7DAFF20780028F5D170BD9D
:1002E0000149088070470000120000100149088091
:1002F000704700001000001000000000FFFFFFFF2B
:100300002DE9F04704460D4616464FF00009C4F5A6
:1003100098743548008848F6891188421ED1A9B2E0
:10032000442000F0ADFE05F1170045EA002081B23F
:10033000442000F0A5FEA1B2452000F0A1FE04F18A
:100340000F0081B2462000F09BFEA9B24E2000F0C3
:1003500097FEA1B24F2000F093FE1BE0A9B25020FF
:1003600000F08EFE05F1170081B2512000F088FEEA
:10037000A1B2522000F084FE04F10F0081B253209C
:1003800000F07EFEA9B2202000F07AFEA1B221206A
:1003900000F076FE4FF480001449C861222000F07E
:1003A0001DFE00F05DFE4FF0000816E00F270FE085
:1003B00036F819100120B840014021B90C480088D6
:1003C00000F03CFE03E00B48008800F037FE7F1E83
:1003D000002FEDDAB61C08F10108B8F1180FE5DBC3
:1003E00000F046FEBDE8F0871400001000C00920B0
:1003F000120000101000001010B5FE48006840F018
:100400007E70FC4908604FF07E708861052000F026
:1004100039FD002000F0C6FDF74908800846008835
:1004200044F2315188427CD10121002000F028FEA5
:100430004FF4C561102000F023FE0621122000F0C9
:100440001FFE40F63221132000F01AFE4021112039
:1004500000F016FE5021152000F012FE1621122089
:1004600000F00EFE0F2000F00DFD45F2606110203F
:1004700000F006FE0F2000F005FD42F64E2113208D
:1004800000F0FEFD4FF48071012000F0F9FD4FF403
:100490004071022000F0F4FD41F23001032000F031
:1004A000EFFD40F20221082000F0EAFD00210A20C1
:1004B00000F0E6FD0021302000F0E2FD40F20241B4
:1004C000312000F0DDFD4FF48371322000F0D8FDC3
:1004D0004FF4E061332000F0D3FD4FF482713420FB
:1004E00000F0CEFD40F20131352000F0C9FD40F2B0
:1004F0000771362000F0C4FD40F20531372000F0CE
:10050000BFFD4FF40271382000F0BAFD40F60B71C8
:10051000392000F0B5FD0F2000F0B4FC022141208D
:1005200000E028E000F0ACFD4FF41C51602000F02A
:10053000A7FD0121612000F0A3FD40F219119020D8
:1005400000F09EFD4FF48571922000F099FD04218A
:10055000932000F095FD4FF48071A02000F090FDF5
:100560000F2000F08FFC0021A02000F089FD142056
:1005700000F088FC04E2A048008849F22531884256
:100580007DD11021E72000F07BFD0121002000F04B
:1005900077FD4FF48071012000F072FD4FF4E061AF
:1005A000022000F06DFD41F23001032000F068FDF3
:1005B0000021042000F064FD40F20721082000F033
:1005C0005FFD0021092000F05BFD00210A2000F002
:1005D00057FD01210C2000F053FD00210D2000F0FB
:1005E0004FFD00210F2000F04BFD0021102000F0F6
:1005F00047FD0721112000F043FD0021122000F0EB
:100600003FFD0021132000F03BFD0F2000F03AFCDD
:1006100041F29051102000F033FD40F227211120CB
:1006200000F02EFD0F2000F02DFC9C21122000F088
:1006300027FD0F2000F026FC4FF4C851132000F0D6
:100640001FFD2321292000F01BFD0E212B2000F08F
:1006500017FD0F2000F016FC0021202000F010FDF7
:100660000021212000F00CFD0F2000F00BFC0721E1
:10067000302000F005FD40F20771312000E085E0F8
:1006800000F0FEFC0621322000F0FAFC40F204717A
:10069000352000F0F5FC41F60471362000F0F0FC46
:1006A0000421372000F0ECFC0021382000F0E8FCA9
:1006B00040F20671392000F0E3FC40F201713C2069
:1006C00000F0DEFC0F213D2000F0DAFC0F2000F0EE
:1006D000D9FB0021502000F0D3FCEF21512000F085
:1006E000CFFC0021522000F0CBFC40F23F11532000
:1006F00000F0C6FC4FF42741602000F0C1FC01214E
:10070000612000F0BDFC00216A2000F0B9FC00214E
:10071000802000F0B5FC0021812000F0B1FC002118
:10072000822000F0ADFC0021832000F0A9FC002114
:10073000842000F0A5FC0021852000F0A1FC102100
:10074000902000F09DFC0021922000F099FC0321F4
:10075000932000F095FC4FF48871952000F090FCF8
:100760000021972000F08CFC0021982000F088FCEC
:1007700040F23311072000F083FC0021202000F01C
:100780007FFC0021212000F07BFCF9E01A48008862
:1007900049F220318842F8D14FF40041E52000F0C1
:1007A0006FFC0121002000F06BFC4FF480710120F0
:1007B00000F066FC4FF4E061022000F061FC41F2C1
:1007C0003001032000F05CFC0021042000F058FC04
:1007D00040F20221082000F053FC0021092000F023
:1007E0004FFC00210A2000F04BFC00210C2000F0FF
:1007F00047FC03E000C009201400001000210D2078
:1008000000F03EFC00210F2000F03AFC00211020F7
:1008100000F036FC0021112000F032FC00211220F3
:1008200000F02EFC0021132000F02AFC142000F020
:1008300029FB41F2B071102000F022FC40F2371188
:10084000112000F01DFC052000F01CFB40F23911C6
:10085000122000F015FC052000F014FB4FF4E851C5
:10086000132000F00DFC1321292000F009FC0520C5
:1008700000F008FB0021202000F002FC00212120D4
:1008800000F0FEFB0621302000F0FAFB40F20111DF
:10089000312000F0F5FB0321322000F0F1FB4FF492
:1008A0008371352000F0ECFB40F60231362000F079
:1008B000E7FB40F20231372000F0E2FB40F2077123
:1008C000382000F0DDFB0721392000F0D9FB4FF480
:1008D000C0613C2000F0D4FB40F20B213D2000F031
:1008E000CFFB0021502000F0CBFBEF21512000F086
:1008F000C7FB0021522000F0C3FB40F23F11532000
:1009000000F0BEFB4FF41C51602000F0B9FB012148
:10091000612000F0B5FB00216A2000F0B1FB00214E
:10092000802000F0ADFB0021812000F0A9FB002118
:10093000822000F0A5FB0021832000F0A1FB002114
:10094000842000F09DFB0021852000F099FB102100
:10095000902000F095FB0021922000F091FB0321F4
:10096000932000F08DFB4FF48871952000F088FBF8
:100970000021972000F084FB0021982000F080FBEC
:1009800041F23801032000F07BFB40F27311072095
:1009900000F076FB9B48008848F6891188427DD19B
:1009A0000121002000F06CFB052000F06BFA4AF6F4
:1009B000A401032000F064FB052000F063FA00218D
:1009C0000C2000F05DFB052000F05CFA40F60C0105
:1009D0000D2000F055FB052000F054FA4FF42C5187
:1009E0000E2000F04DFB052000F04CFAB0211E2037
:1009F00000F046FB052000F045FA42F63F310120A9
:100A000000F03EFB052000F03DFA4FF4C0610220EB
:100A100000F036FB052000F035FA0021102000F030
:100A20002FFB052000F02EFA46F27801112000F08D
:100A300027FB052000F026FA0021052000F020FB0E
:100A4000052000F01FFA0021062000F019FB052008
:100A500000F018FA4EF61C71162000F011FB05206C
:100A600000F010FA0321172000F00AFB052000F027
:100A700009FA40F23321072000F002FB052000F0C4
:100A800001FA00210B2000F0FBFA052000F0FAF932
:100A900000210F2000F0F4FA052000E0B1E000F0A2
:100AA000F1F90021412000F0EBFA052000F0EAF90D
:100AB0000021422000F0E4FA052000F0E3F90021D3
:100AC000482000F0DDFA052000F0DCF940F23F118B
:100AD000492000F0D5FA052000F0D4F900214A2081
:100AE00000F0CEFA052000F0CDF900214B2000F0F7
:100AF000C7FA052000F0C6F94FF46F41442000F01A
:100B0000BFFA052000F0BEF90021452000F0B8FA38
:100B1000052000F0B7F940F23F11462000F0B0FA8E
:100B2000052000F0AFF940F20771302000F0A8FA7C
:100B3000052000F0A7F94FF40171312000F0A0FA70
:100B4000052000F09FF94FF40171322000F098FA6F
:100B5000052000F097F940F20251332000F090FA9E
:100B6000052000F08FF940F20751342000F088FA98
:100B7000052000F087F94FF40171352000F080FA6C
:100B8000052000F07FF94FF40171362000F078FA6B
:100B9000052000F077F940F20251372000F070FA9A
:100BA000052000F06FF940F202313A2000F068FAB7
:100BB000052000F067F940F202313B2000F060FAB6
:100BC000052000F05FF90021232000F059FA0520EC
:100BD00000F058F90021242000F052FA052000F01E
:100BE00051F94FF40041252000F04AFA052000F0A9
:100BF00049F900214F2000F043FA00214E2000F077
:100C00003FFA10BD1400001010B51548008848F6D2
:100C10008911884212D10021442000F031FA4FF4AA
:100C20006F41442000F02CFA0021452000F028FA02
:100C300040F23F11462000F023FA10E0002150203E
:100C400000F01EFAEF21512000F01AFA0021522084
:100C500000F016FA40F23F11532000F011FA10BDD7
:100C6000140000101248006840F480001049C43994
:100C7000C1F8C4000F48006840F440300D490860D6
:100C800000200D49C8600D480862C02048618000FE
:100C9000C8630320012181404209920002F1E02251
:100CA000C2F8001100BF01200349486070470000EE
:100CB000C4C00F4000C0024000000940D012130021
:100CC00020204B4908604B48D0F8A00100F02000DC
:100CD00030B100BF4648006800F040000028F9D05D
:100CE000032043499C39086000204249C1F8A8010B
:100CF0003F490C31086001203D49943908603E4865
:100D00003C4984310860AA203A498C31086055205A
:100D100008600120374980310860AA2035498C31AC
:100D2000086055203349C1F88C0000BF3148883035
:100D3000006800F080600028F8D003202D49803141
:100D40000860AA202B49C1F88C00552029498C3114
:100D5000086000BF27488830006800F04070B0F19C
:100D6000407FF7D123202349A4310860AA202149DC
:100D7000C1F8AC0055201F49AC31086001201D4965
:100D8000A0310860AA201B49AC31086055201949E0
:100D9000C1F8AC0000BF1748A830006800F48060BC
:100DA0000028F8D003201349A0310860AA20114977
:100DB000C1F8AC0055200F49AC31086000BF0D48A8
:100DC000A830006800F44070B0F5407FF7D10B48C0
:100DD0000849C431086000200649C1F8C801084626
:100DE000006820F4704040F48040086070470000C4
:100DF000A0C10F4000C00F4063000500DE8728043B
:100E000004201A4908600846006A1949884203D13B
:100E100018481649086207E01448006A15498842D4
:100E200002D11348114908621348006801281BD1F8
:100E300012480068072811DC114801680F48006853
:100E4000401C81420ADC0D480068401C0B490860C8
:100E50000B480068401C0A49086004E0012007496B
:100E600008600749086000BF00BF704700000940E4
:100E7000D0121300A08601000C000010000000102A
:100E800008000010800400BF011EA0F10100FBD18A
:100E90007047000001460A48006C40F0FF00084A15
:100EA00010644FF4001090618010D06110464165CD
:100EB0004FF480109061D061081250650120704796
:100EC00000C00920FFF7CEFEFFF796FA4FF6FF703D
:100ED000FFF7A8F94FF6E070FFF708FA0F20FFF7C9
:100EE000FFF901201049086017E00F480068401C16
:100EF0000E4908600AE00EA20C4801680A48006822
:100F0000FFF7DCF94FF6FF70FFF78CF9074801682F
:100F100005480068401C8142EDDD03480068072851
:100F2000E3DD00BFFEE70000000000100800001035
:100F30004F6B6162652053686862000010B5002441
:100F40004FF4000016498861400088614000C86184
:100F500000BF0846006C20F0FF0008644FF400104A
:100F6000C8618010C861502000F032F80C48406D14
:100F7000C3B24FF400200A498861502000F028F8DD
:100F80000748406D63F31F2003464FF400100449E7
:100F9000886100BF1C4600018861204610BD00002A
:100FA00000C0092070B5044600254FF480000749B1
:100FB000C861E0B200F012F8FFF7C0FF05464FF439
:100FC000800002498861284670BD000000C00920E9
:100FD00000BF011EA0F10100FBD1704710B504460F
:100FE0004FF400000849C861800088612046FFF77F
:100FF00051FF4FF080700449C861FFF7B5F84FF01A
:1010000080700149886110BD00C0092010B50446F8
:101010004FF4000008498861800088612046FFF78E
:1010200039FF4FF080700449C861FFF79DF84FF019
:1010300080700149886110BD00C0092010B50446C8
:101040002046FFF727FF4FF080700449C861FFF783
:101050008BF84FF080700149886110BD00C00920F5
:101060004FF40000014988617047000000C009206A
:101070004FF48000014988617047000000C00920DA
:1010800070B505460C464FF480000649C8612846F5
:10109000FFF7A4FF2046FFF7B9FF4FF48000014996
:1010A000886170BD00C00920000000000000000041
:1010B0000000000000000000000000000000000030
:1010C0000000000000000000000000000000000020
:1010D000000000000000000000008001800180018D
:1010E00080018001800180018001800180018001F8
:1010F00080018001000000008001800100000000EC
:10110000000000000000000000000000CC00CC0047
:10111000CC00CC00CC00CC0000000000000000009F
:1011200000000000000000000000000000000000BF
:1011300000000000000000000000000000000000AF
:1011400000000000600C600C600C30063006FE1FD2
:10115000FE1F300638071803FE1FFE1F1803180372
:101160008C018C018C01000000008000E003F80F6E
:101170009C0E8C1C8C188C009800F801E007800EE7
:10118000801C8C188C189C18B80CF00FE0038000A1
:1011900080000000000000000000000000000E18A9
:1011A0001B0C110C11061106110311039B018E017A
:1011B000C038C06C60446044304430441844186CFB
:1011C0000C380000000000000000E001F0033807C8
:1011D000180618063003F001F000F8009C310E33B9
:1011E000061E061C061C063FFC73F02100000000D2
:1011F0000000000000000000000000000C000C00D7
:101200000C000C000C000C000000000000000000AE
:1012100000000000000000000000000000000000CE
:101220000000000000000000000000020003800138
:10123000C000C000600060003000300030003000AE
:10124000300030003000300060006000C000C0009E
:101250008001000300020000000020006000C000C8
:10126000800180010003000300060006000600065E
:10127000000600060006000600030003800180014E
:10128000C00060002000000000000000000000001E
:1012900000000000C000C000D806F807E0013003DD
:1012A00038070000000000000000000000000000FF
:1012B000000000000000000000000000000000002E
:1012C0000000000080018001800180018001FC3F5E
:1012D000FC3F80018001800180018001000000004E
:1012E00000000000000000000000000000000000FE
:1012F00000000000000000000000000000000000EE
:1013000000000000000000000000800180010001DA
:10131000000180000000000000000000000000004C
:1013200000000000000000000000000000000000BD
:10133000E007E007000000000000000000000000DF
:10134000000000000000000000000000000000009D
:10135000000000000000000000000000000000008D
:1013600000000000000000000000C000C0000000FD
:1013700000000000000000000000000C000C00064F
:1013800000060006000300030003800380018001C3
:101390008001C000C000C0006000600000000000CC
:1013A00000000000000000000000E003F007380E1D
:1013B000180C0C180C180C180C180C180C180C180D
:1013C0000C180C18180C380EF007E0030000000091
:1013D0000000000000000000000000018001C001CA
:1013E000F001980188018001800180018001800165
:1013F00080018001800180018001800100000000E7
:1014000000000000000000000000E003F80F180CCE
:101410000C180C1800180018000C000600038001BE
:10142000C000600030001800FC1FFC1F000000001E
:1014300000000000000000000000E001F807180EA6
:101440000C0C0C0C000C0006C003C007000C0018AC
:1014500000180C180C18180CF807E0030000000026
:1014600000000000000000000000000C000E000F53
:10147000000F800DC00C600C600C300C180C0C0CB4
:10148000FC3FFC3F000C000C000C000C00000000B6
:1014900000000000000000000000F80FF80F180026
:1014A00018000C00EC03FC071C0E001C00180018B0
:1014B00000180C181C0C180EF807E00300000000C0
:1014C00000000000000000000000C007F00F381C02
:1014D000181818000C00CC03EC0F3C0E1C1C0C1848
:1014E0000C180C18181C380EF007E0030000000060
:1014F00000000000000000000000FC1FFC1F000CAA
:1015000000060006000380038001C001C000E00067
:10151000600060007000300030003000000000000B
:1015200000000000000000000000E003F007380E9B
:10153000180C180C180C3806F007F007180C0C18CB
:101540000C180C180C18380CF80FE0030000000001
:1015500000000000000000000000E003F007380E6B
:101560001C0C0C180C180C181C1C381EF81BE0194D
:101570000018000C000C1C0EF807F0010000000021
:10158000000000000000000000000000000000005B
:101590000000000080018001000000000000000049
:1015A0000000000000000000800180010000000039
:1015B000000000000000000000000000000000002B
:1015C0000000000080018001000000000000000019
:1015D0000000000000000000800180010001000107
:1015E000800000000000000000000000000000007B
:1015F00000000000000000000010001C800FE0034D
:10160000F8001800F800E003800F001C0010000034
:1016100000000000000000000000000000000000CA
:101620000000000000000000F81F000000000000A3
:10163000F81F000000000000000000000000000093
:10164000000000000000000000000000000000009A
:10165000000000000000000008003800F001C00792
:10166000001F0018001FC007F0013800080000002C
:1016700000000000000000000000E003F80F180C5C
:101680000C180C180018000C000600038001C000A4
:10169000C000C00000000000C000C000000000004A
:1016A000000000000000000000000000E007181823
:1016B0000420C229224A1144094409440944092248
:1016C0001113E20C024004201818E007000000008B
:1016D0000000000000000000000080038003C0063E
:1016E000C006C006600C600C301830183018F83F87
:1016F000F83F1C700C600C6006C006C000000000C3
:1017000000000000000000000000FC03FC0F0C0CB7
:101710000C180C180C180C0CFC07FC0F0C180C30D7
:101720000C300C300C300C18FC1FFC0700000000C3
:1017300000000000000000000000C007F01F383863
:101740001C300C700660060006000600060006004D
:10175000060006600C701C30F01FE007000000005F
:1017600000000000000000000000FE03FE0F060E57
:1017700006180618063006300630063006300630E9
:10178000063006180618060EFE0FFE0300000000C5
:1017900000000000000000000000FC3FFC3F0C00C7
:1017A0000C000C000C000C00FC1FFC1F0C000C00BB
:1017B0000C000C000C000C00FC3FFC3F0000000083
:1017C00000000000000000000000F83FF83F180093
:1017D0001800180018001800F81FF81F180018004B
:1017E0001800180018001800180018000000000069
:1017F00000000000000000000000E00FF83F3C780F
:101800000E6006E007C00300030003FE03FE03C0F2
:1018100007C006C00EC03CF0F83FE00F000000001B
:10182000000000000000000000000C300C300C3004
:101830000C300C300C300C30FC3FFC3F0C300C30CA
:101840000C300C300C300C300C300C300000000030
:101850000000000000000000000080018001800105
:101860008001800180018001800180018001800170
:101870008001800180018001800180010000000062
:101880000000000000000000000000060006000646
:101890000006000600060006000600060006000618
:1018A0000006180618063807F003E00100000000E3
:1018B0000000000000000000000006300618060CC2
:1018C000060606038601C60066007600DE008E016D
:1018D00006030606060C0618063006600000000027
:1018E00000000000000000000000180018001800B0
:1018F0001800180018001800180018001800180028
:101900001800180018001800F81FF81F0000000049
:10191000000000000000000000000EE01EF01EF0BD
:101920001EF036D836D836D836D866CC66CC66CCDB
:10193000C6C6C6C6C6C6C6C686C386C300000000E5
:10194000000000000000000000000C301C303C30A3
:101950003C306C306C30CC30CC308C310C330C33B0
:101960000C360C360C3C0C3C0C380C3000000000E3
:1019700000000000000000000000E007F81F1C3815
:101980000E70066003C003C003C003C003C003C0E1
:1019900003C006600E701C38F81FE007000000004E
:1019A00000000000000000000000FC0FFC1F0C38CD
:1019B0000C300C300C300C300C18FC1FFC070C00E9
:1019C0000C000C000C000C000C000C0000000000CF
:1019D00000000000000000000000E007F81F1C38B5
:1019E0000E70066003E003C003C003C003C003C061
:1019F00007E006630E3F1C3CF83FE0F700C0000024
:101A000000000000000000000000FE0FFE1F06386E
:101A10000630063006300638FE1FFE0706030606AF
:101A2000060C061806180630063006600000000096
:101A300000000000000000000000E003F80F1C0C94
:101A40000C180C180C001C00F803E00F001E0038E6
:101A5000063006300E301C1CF80FE00700000000B6
:101A600000000000000000000000FE7FFE7F8001FB
:101A7000800180018001800180018001800180015E
:101A80008001800180018001800180010000000050
:101A9000000000000000000000000C300C300C3092
:101AA0000C300C300C300C300C300C300C300C3056
:101AB0000C300C300C301818F81FE0070000000044
:101AC0000000000000000000000003600630063047
:101AD00006300C180C180C18180C180C380E3006A0
:101AE0003006700760036003C001C0010000000001
:101AF000000000000000000000000360C361C3613B
:101B0000C3616633663366336633663366336C1B94
:101B10006C1B6C1B2C1A3C1E380E380E000000008B
:101B2000000000000000000000000FE00C70183002
:101B30003018700C600EC00780038003C003E006FD
:101B4000700C301C18180C300E6007E0000000000C
:101B50000000000000000000000003C006600C3020
:101B60001C383818300C6006E007C0038001800183
:101B7000800180018001800180018001000000005F
:101B800000000000000000000000FC7FFC7F0060FF
:101B900000300018000C000600038001C000600047
:101BA000300018000C000600FE7FFE7F00000000E1
:101BB00000000000000000000000E003E0036000FF
:101BC0006000600060006000600060006000600015
:101BD0006000600060006000600060006000600005
:101BE0006000E003E003000000003000300060000F
:101BF00060006000C000C000C000C0018001800122
:101C0000800100030003000300060006000000003E
:101C100000000000000000000000E003E0030003FB
:101C2000000300030003000300030003000300039C
:101C3000000300030003000300030003000300038C
:101C40000003E003E003000000000000C001C00149
:101C500060036003600330063006180C180C0000A7
:101C60000000000000000000000000000000000074
:101C70000000000000000000000000000000000064
:101C80000000000000000000000000000000000054
:101C900000000000000000000000FFFFFFFF000048
:101CA000000000000000000000000C000C000C0010
:101CB0000C000C000C000000000000000000000000
:101CC0000000000000000000000000000000000014
:101CD0000000000000000000000000000000000004
:101CE00000000000F003F8071C0C0C0C000FF00FB4
:101CF000F80C0C0C0C0C1C0FF80FF0180000000076
:101D0000000000000000000000001800180018008B
:101D100018001800D803F80F380C181818181818DD
:101D2000181818181818380CF80FD80300000000FD
:101D300000000000000000000000000000000000A3
:101D400000000000C003F007300E180C1800180047
:101D500018001800180C300EF007C0030000000037
:101D6000000000000000000000000018001800182B
:101D700000180018C01BF01F301C1818181818186D
:101D8000181818181818301CF01FC01B000000008D
:101D90000000000000000000000000000000000043
:101DA00000000000C003F00F300C1818F81FF81FD7
:101DB000180018003818301CF00FC0070000000091
:101DC00000000000000000000000800FC00FC000F5
:101DD000C000C000F007F007C000C000C000C00095
:101DE000C000C000C000C000C000C0000000000073
:101DF00000000000000000000000000000000000E3
:101E000000000000E00DF80F180E0C0C0C0C0C0C70
:101E10000C0C0C0C0C0C180EF80FE00D000C0C0C3C
:101E20001C06F807F0010000000018001800180058
:101E300018001800D807F80F381C181818181818A8
:101E40001818181818181818181818180000000072
:101E500000000000000000000000C000C000000002
:101E600000000000C000C000C000C000C000C000F2
:101E7000C000C000C000C000C000C00000000000E2
:101E800000000000000000000000C000C0000000D2
:101E900000000000C000C000C000C000C000C000C2
:101EA000C000C000C000C000C000C000C000C00032
:101EB000C000F8007800000000000C000C000C00CE
:101EC0000C000C000C0C0C060C038C01CC006C00FC
:101ED000FC009C018C030C030C060C0C00000000A1
:101EE00000000000000000000000C000C000C000B2
:101EF000C000C000C000C000C000C000C000C000E2
:101F0000C000C000C000C000C000C0000000000051
:101F100000000000000000000000000000000000C1
:101F2000000000007C3CFF7EC7E383C183C183C106
:101F300083C183C183C183C183C183C10000000009
:101F40000000000000000000000000000000000091
:101F5000000000009807F80F381C181818181818F7
:101F60001818181818181818181818180000000051
:101F70000000000000000000000000000000000061
:101F800000000000C003F00F300C181818181818C3
:101F9000181818181818300CF00FC00300000000B3
:101FA0000000000000000000000000000000000031
:101FB00000000000D803F80F380C1818181818186B
:101FC000181818181818380CF80FD803180018002B
:101FD00018001800180000000000000000000000B9
:101FE00000000000C01BF01F301C1818181818182B
:101FF000181818181818301CF01FC01B00180018EB
:102000000018001800180000000000000000000088
:1020100000000000B007F003700030003000300016
:102020003000300030003000300030000000000090
:1020300000000000000000000000000000000000A0
:1020400000000000E003F003380E180C3800F00325
:10205000C007000C180C380EF007E0030000000069
:102060000000000000000000000000008000C00030
:10207000C000C000F007F007C000C000C000C000F2
:10208000C000C000C000C000C00780070000000002
:102090000000000000000000000000000000000040
:1020A0000000000018181818181818181818181810
:1020B000181818181818381CF01FE0190000000034
:1020C0000000000000000000000000000000000010
:1020D000000000000C18180C180C180C3006300604
:1020E0003006600360036003C001C001000000000F
:1020F00000000000000000000000000000000000E0
:1021000000000000C141C141C36163636363636355
:102110003636363636361C1C1C1C1C1C00000000D3
:1021200000000000000000000000000000000000AF
:10213000000000001C38381C300C6006C003C003CF
:10214000C003C0036006300C381C1C3800000000BF
:10215000000000000000000000000000000000007F
:10216000000000001830301830187018600C600C37
:10217000E00CC006C006800380038003800180015C
:10218000C001F0007000000000000000000000002E
:1021900000000000FC1FFC1F000C00060003800173
:1021A000C000600030001800FC1FFC1F0000000091
:1021B0000000000000000000000000038001C000DB
:1021C000C000C000C000C000C0006000600030005F
:1021D00060004000C000C000C000C000C000C000DF
:1021E00080010003000000000000800180018001E8
:1021F00080018001800180018001800180018001D7
:1022000080018001800180018001800180018001C6
:10221000800180018001000000006000C000C0015A
:10222000800180018001800180010003000300061D
:102230000003000180018001800180018001800194
:10224000C00060000000000000000000000000006E
:102250000000000000000000F010F81F080F000050
:10226000000000000000000000000000000000006E
:10227000000000000000000000000000000000005E
:10228000000000000000000000000000000000004E
:10229000000000000000000000000000000000003E
:1022A000000000000000000000000000000000002E
:1022B0000000C003300C081004200420024002403B
:1022C000024002400240042004200810300CC003E9
:1022D00000000000000000000000000000000000FE
:1022E0000000C003F00FF81FFC3FFC3FFE7FFE7FA5
:1022F000FE7FFE7FFE7FFC3FFC3FF81FF00FC00318
:1023000000000000000000000000000000000000CD
:10231000000000000000E007F00F18181818181847
:10232000181818181818F00FE00700000000000037
:10233000000000000000000000000000000000009D
:10234000000000000000E007F00FF81FF81FF81F62
:10235000F81FF81FF81FF00FE00700000000000052
:10236000000000000000000000000000000000006D
:10237000000000000000000000000000000000005D
:102380008001C0036006300C18181818F81FF81FD9
:10239000000000000000000000000000000000003D
:1023A000000000000000000000000000000000002D
:1023B0008001C003E007F00FF81FF81FF81FF81F97
:1023C000000000000000000000000000000000000D
:1023D000F81FF81F18181818300C6006C003800189
:1023E00000000000000000000000000000000000ED
:1023F00000000000000000000000000000000000DD
:10240000F81FF81FF81FF81FF00FE007C003800146
:1024100000000000000000000000000000000000BC
:1024200000000000000000000000000000000000AC
:10243000000000000000E001F00198018C0186011D
:1024400086018C019801F001E0010000000000000D
:10245000000000000000000000000000000000007C
:10246000000000000000E001F001F801FC01FE01A5
:10247000FE01FC01F801F001E00100000000000095
:10248000000000000000000000000000000000004C
:102490000000000000008007800F801980318061FB
:1024A000806180318019800F8007000000000000EB
:1024B000000000000000000000000000000000001C
:1024C0000000000000008007800F801F803F807F99
:1024D000807F803F801F800F800700000000000089
:1024E00000000000000000000000C00120022002E7
:1024F0004001300608080808080808080808080805
:1025000008082002200220022002200220022002CD
:1025100020022002200200000000C001E003E003CE
:10252000C001F007D80DD80DD80DD80DD80DD80D95
:10253000D80D600360036003600360036003600301
:1025400060036003600300000000C001200220025D
:10255000400130060808080808080410022002207C
:10256000400120022002100408080808041004108A
:1025700004200440000000000000C001E003E0036C
:10258000C001F007D80DD80DD80DCC19C631C261E5
:10259000C001600360037006380C180C0C180C188E
:1025A0000C300C6000000000C82500000000001086
:1025B0001800000008010000E025000018000010CD
:1025C0006002000024010000000000000000000084
:1025D00000000000010000000000FFFF00000000FC
:04000005000000CD2A
:00000001FF
