:020000040000FA
:1000000018020010E5000000E9000000EB0000000D
:10001000ED000000EF000000F10000000000000013
:10002000000000000000000000000000F3000000DD
:10003000F500000000000000F700000001030000D0
:10004000FB000000FB000000FB000000FB000000C4
:10005000FB000000FB000000FB000000FB000000B4
:10006000FB000000FB000000FB000000FB000000A4
:10007000FB000000FB000000FB000000FB00000094
:10008000FB000000FB000000FB000000FB00000084
:10009000FB000000FB000000FB000000FB00000074
:1000A000FB000000FB000000FB000000FB00000064
:1000B000FB000000FB000000FB000000FB00000054
:1000C000FB000000FB000000FB000000DFF80CD08C
:1000D00001F030F8004800475102000018020010FB
:1000E00000BF704705480047FEE7FEE7FEE7FEE772
:1000F000FEE7FEE7FEE7FEE7FEE7FEE7CD000000D5
:1001000030B54B492020C1F8A001D1F8A00140062C
:10011000FBD50325C1F804510022C1F8A821C1F87C
:10012000AC210120C1F80C01424BC1F88430C1F868
:100130008000AA23C1F88C305524C1F88C40D1F836
:1001400088004001FBD5C1F88050C1F88C30C1F85F
:100150008C40C1F808213848C1F8C400C1F8C82152
:10016000D1F88800354A6FEA10608007D1F80C0199
:1001700000F0030007D078B3012844D0022847D00C
:1001800003284ED13AE028B1012813D0022824D008
:10019000032846D1D1F88800D1F80431C0F30740D4
:1001A000DBB2401C5B1C5843D1F88830244CC3F3AD
:1001B0000E030EE0D1F88800D1F80431C0F30740F7
:1001C000DBB2401C5B1C5843D1F888301D4CC3F394
:1001D0000E035B1C634321E010E0D1F88800D1F8E6
:1001E0000431C0F30740DBB2401C5B1C5843D1F81C
:1001F00088304FF47A44C3F30E03EAE7D1F80401E0
:10020000114BC0B209E0D1F80401104BC0B204E0B8
:10021000D1F804014FF4FA43C0B2401CB3FBF0F034
:100220001060086820F4704040F48040086030BDE1
:1002300000C00F4063000500DE87280400000010A6
:1002400000127A0000366E0100093D00001BB70065
:100250001FB5FFF755FF00F084F84FF6FF7000F070
:10026000CAFC4FF6E07000F0C0FC002000F0C0FCBB
:1002700015494FF04040C860144850F8C41F41F47D
:1002800080510160134C124820604FF4967520682D
:1002900040F080702060606A0028FCDAC0F30B1622
:1002A00032460DA101A800F057FF012101AA08461E
:1002B00000F049FDB008009014232A4664210A206A
:1002C00000F05CFDE3E7000000C0024000C00F400A
:1002D00020032000004003402534640002E008C8E9
:1002E000121F08C1002AFAD170477047002001E0B0
:1002F00001C1121F002AFBD170470000FFFFFFFF62
:100300000C4901224868401C48600A280ED006DCCF
:1003100003280DD0052809D0082808D108E00D28A9
:1003200006D00F2803D1002048608A700A707047F9
:100330004A70704704000010401EFDD27047FE490D
:100340000A6C42F0FF020A644FF400128A619210B4
:10035000CA61486552008A61CA61000A4865012085
:1003600070472DE9F05FF448016841F07E7101604B
:100370004FF07E718161052000F05FFE002000F0EB
:1003800098FEEE4CA0F58A414FF48075A08041F2B2
:10039000300940F2022A4FF4837B40F23F1640F2CC
:1003A0000237313908D0A0F513414FF48878253948
:1003B0007DD0491D7CD08CE20121002000F06CFE34
:1003C0004FF4C561102000F067FE0621122000F0F6
:1003D00063FE40F63221132000F05EFE4021112022
:1003E00000F05AFE5021152000F056FE1621122072
:1003F00000F052FE0F2000F020FE45F26061102058
:1004000000F04AFE0F2000F018FE42F64E211320A5
:1004100000F042FE2946012000F03EFE4FF44071FC
:10042000022000F039FE4946032000F035FE514617
:10043000082000F031FE00210A2000F02DFE0021EE
:10044000302000F029FE40F20241312000F024FE6D
:100450005946322000F020FE4FF4E061332000F0D6
:100460001BFE4FF48271342000F016FE40F2013181
:10047000352000F011FE40F20771362000F00CFE2E
:1004800040F20531372000F007FE4FF402713820AA
:1004900000F002FE40F60B71392000F0FDFD0F2048
:1004A00000F0CBFD0221412000F0F6FD01E026E046
:1004B00022E14FF41C51602000F0EEFD012161208B
:1004C00000F0EAFD40F21911902000F0E5FD4FF434
:1004D0008571922000F0E0FD0421932000F0DCFD06
:1004E0002946A02000F0D8FD0F2000F0A6FD002135
:1004F000A02000F0D1FD142000F09FFDE9E11021C3
:10050000E72000F0C9FD0121002000F0C5FD2946CB
:10051000012000F0C1FD4FF4E061022000F0BCFDBD
:100520004946032000F0B8FD0021042000F0B4FD8E
:1005300040F20721082000F0AFFD0021092000F063
:10054000ABFD00210A2000F0A7FD01210C2000F0E6
:10055000A3FD00210D2000F09FFD00210F2000F0E1
:100560009BFD0021102000F097FD0721112000F0D5
:1005700093FD0021122000F08FFD0021132000F0D8
:100580008BFD0F2000F059FD41F29051102000F03A
:1005900083FD40F22721112000F07EFD0F2000F0A6
:1005A0004CFD9C21122000F077FD0F2000F045FD4E
:1005B0004FF4C851132000F06FFD2321292000F0D3
:1005C0006BFD0E212B2000F067FD0F2000F035FDA4
:1005D0000021202000F060FD0021212000F05CFDC2
:1005E0000F2000F02AFD0721302000F055FD40F2D9
:1005F0000771312000F050FD0621322000F04CFD43
:1006000040F20471352000F047FD41F604713620B8
:1006100000F042FD0421372000F03EFD002138208B
:1006200000F03AFD40F20671392000F035FD40F24D
:1006300001713C2000F030FD0F213D2000F02CFD29
:100640000F2000F0FAFC0021502000F025FDEF21E2
:10065000512000F021FD0021522000F01DFD314607
:10066000532000F019FD4FF42741602000F014FDE5
:100670000121612000F010FD00216A2000F00CFD36
:100680000021802000F008FD0021812000F004FD01
:100690000021822000F000FD0021832000F0FCFCFE
:1006A0000021842000F0F8FC0021852000F0F4FCFB
:1006B0001021902000F0F0FC0021922000F0ECFCD2
:1006C0000321932000F0E8FC4146952000F0E4FC73
:1006D0000021972000F0E0FC0021982000F0DCFCD5
:1006E00040F23311072000F0D7FC0021202000F059
:1006F000D3FC00212120EAE04FF40041E52000F086
:10070000CBFC0121002000F0C7FC2946012000F0AD
:10071000C3FC4FF4E061022000F0BEFC4946032018
:1007200000F0BAFC0021042000F0B6FC514608207D
:1007300000F0B2FC002103E000C009200C00001012
:10074000092000F0A9FC00210A2000F0A5FC0021EE
:100750000C2000F0A1FC00210D2000F09DFC0021E8
:100760000F2000F099FC0021102000F095FC0021E2
:10077000112000F091FC0021122000F08DFC0021DE
:10078000132000F089FC142000F057FC41F2B071F6
:10079000102000F081FC40F23711112000F07CFCA9
:1007A000052000F04AFC40F23911122000F074FCE0
:1007B000052000F042FC4FF4E851132000F06CFCDF
:1007C0001321292000F068FC052000F036FC0021F0
:1007D000202000F061FC0021212000F05DFC0621BA
:1007E000302000F059FC40F20111312000F054FC9F
:1007F0000321322000F050FC5946352000F04CFC1B
:1008000040F60231362000F047FC3946372000F030
:1008100043FC40F20771382000F03EFC07213920EC
:1008200000F03AFC4FF4C0613C2000F035FC40F28F
:100830000B213D2000F030FC0021502000F02CFC6A
:10084000EF21512000F028FC0021522000F024FC70
:100850003146532000F020FC4FF41C51602000F082
:100860001BFC0121612000F017FC00216A2000F030
:1008700013FC0021802000F00FFC0021812000F0FB
:100880000BFC0021822000F007FC0021832000F0F7
:1008900003FC0021842000F0FFFB0021852000F0F4
:1008A000FBFB1021902000F0F7FB0021922000F0CC
:1008B000F3FB0321932000F0EFFB4146952000F06D
:1008C000EBFB0021972000F0E7FB0021982000F0CF
:1008D000E3FB41F23801032000F0DEFB40F273112C
:1008E000072000F0D9FBA088A0F5094189397DD106
:1008F0000121002000F0D0FB052000F09EFB4AF60D
:10090000A401032000F0C8FB052000F096FB0021A5
:100910000C2000F0C1FB052000F08FFB40F60C011D
:100920000D2000F0B9FB052000F087FB4FF42C519F
:100930000E2000F0B1FB052000F07FFBB0211E204F
:1009400000F0AAFB052000F078FB42F63F310120C1
:1009500000F0A2FB052000F070FB4FF4C061022004
:1009600000F09AFB052000F068FB0021102000F049
:1009700093FB052000F061FB46F27801112000F0A6
:100980008BFB052000F059FB0021052000F084FBC3
:10099000052000F052FB0021062000F07DFB052021
:1009A00000F04BFB4EF61C71162000F075FB052085
:1009B00000F043FB0321172000F06EFB052000F040
:1009C0003CFB40F23321072000F066FB052000F0DD
:1009D00034FB00210B2000F05FFB052000F02DFB15
:1009E00000210F2000F058FB052000E0ACE000F0F3
:1009F00024FB0021412000F04FFB052000F01DFBEF
:100A00000021422000F048FB052000F016FB0021E9
:100A1000482000F041FB052000F00FFB3146492043
:100A200000F03AFB052000F008FB00214A2000F00E
:100A300033FB052000F001FB00214B2000F02CFBD4
:100A4000052000F0FAFA4FF46F41442000F024FB37
:100A5000052000F0F2FA0021452000F01DFB0520E2
:100A600000F0EBFA3146462000F016FB052000F0BE
:100A7000E4FA40F20771302000F00EFB052000F090
:100A8000DCFA4FF401742146312000F005FB05200B
:100A900000F0D3FA2146322000F0FEFA052000F0E3
:100AA000CCFA40F202552946332000F0F5FA052031
:100AB00000F0C3FA691D342000F0EEFA052000F0C2
:100AC000BCFA2146352000F0E7FA052000F0B5FA1F
:100AD0002146362000F0E0FA052000F0AEFA294663
:100AE000372000F0D9FA052000F0A7FA39463A205D
:100AF00000F0D2FA052000F0A0FA39463B2000F0C1
:100B0000CBFA052000F099FA0021232000F0C4FA66
:100B1000052000F092FA0021242000F0BDFA052003
:100B200000F08BFA4FF40041252000F0B5FA0520C3
:100B300000F083FA00214F2000F0AEFABDE8F05F2C
:100B400000214E2000F0A8BABDE8F09FFB4810B588
:100B5000808840F23F14A0F50942893A4FF0000125
:100B600010D0502000F098FAEF21512000F094FAB4
:100B70000021522000F090FA21465320BDE8104099
:100B800000F08ABA442000F087FA4FF46F41442005
:100B900000F082FA0021452000F07EFA214646202E
:100BA000ECE770B5E54DA0F23F104442AA8889B247
:100BB000A2F50943893B12D0202000F06DFAA1B2C2
:100BC000212000F069FADE4E4FF48004F461222007
:100BD00000F037FA288800F044FAB46170BD4E2066
:100BE00000F05AFAA1B24F20EBE7D44908807047D1
:100BF000D249488070472DE9F0418046FFF7A6FFB3
:100C0000CE488088A0F5094189394FF000011BD0FA
:100C1000202000F041FA0021212000F03DFAC84DCB
:100C20004FF48006EE61222000F00BFA7000A861FC
:100C300000244FF49637404600F023FA641CBC426F
:100C4000F9D3AE61BDE8F0814E2000F025FA002115
:100C50004F20E2E72DE9F05FB84EC0F598770C46DB
:100C6000B0881546A0F5094189394FF00008A1B2B6
:100C700033D0502000F010FA04F1170081B2512057
:100C800000F00AFAB9B2522000F006FA07F10F009C
:100C900081B2532000F000FAA1B2202000F0FCF94C
:100CA000B9B2212000F0F8F9DFF894B24FF4800ACD
:100CB0005C46CBF81CA0222000F0C3F94FF40000E2
:100CC000A06100274FF001090F2435F8181009FA28
:100CD00004F001421ED170881DE0442000F0DCF9D0
:100CE0004FF4B85000EB0420204381B2442000F0C0
:100CF000D3F9B9B2452000F0CFF907F10F0081B266
:100D0000462000F0C9F9A1B24E2000F0C5F9B9B2F1
:100D10004F20C7E7308800F0B4F9641ED5D5AD1C6C
:100D20007F1C182FD0DBCBF818A00DE70B46203A1C
:100D3000D1B2844A01EB410102EB011200EB400009
:100D4000C100180186E770B515460C460646FFF748
:100D5000FDFE05E02146641C30466D1CFFF7E6FFF2
:100D60002A78002AF6D170BD10B50446FFF7EEFED2
:100D70002046BDE8104074A20021E4E72DE9F05FB1
:100D8000DFF8B8910D461646C0F5A070B9F804100A
:100D9000841B48F6891A0A9F51459846A9B214D176
:100DA000442000F079F94FF4B85000EB05202843B7
:100DB00081B2442000F070F9A1B2452000F06CF936
:100DC000A019401E81B2462010E0502000F064F9C6
:100DD00005F1170081B2512000F05EF9A1B2522056
:100DE00000F05AF9A019401E81B2532000F054F9C6
:100DF0007743B9F80410BF0A5145A9B205D14E2076
:100E000000F04AF9A1B24F2004E0202000F044F99C
:100E1000A1B2212000F040F9DFF824A14FF4800BAB
:100E20005446CAF81CB0222000F00BF94FF4000021
:100E3000A06100254FF478490BE0741E08D4BC4231
:100E400001D3484600E01F2000F01BF9641EF6D5D0
:100E50006D1C4545F1D3CAF818B075E62DE9F04789
:100E60001646C0F5A070841B34480F469946818809
:100E7000089DA1F5094207EB0908893AB9B229D0C2
:100E8000502000F009F9A8F1010081B2512000F0D2
:100E900003F9A1B2522000F0FFF8A019401E81B260
:100EA000532000F0F9F8B9B2202000F0F5F8A1B213
:100EB000212000F0F1F8DFF888804FF4800A4446E2
:100EC000C8F81CA0222000F0BCF84FF40000A0617C
:100ED00000272CE0442000F0DFF86FF0FF0101EB69
:100EE0000820384381B2442000F0D6F8A1B2452052
:100EF00000F0D2F8A019401E81B2462000F0CCF8D4
:100F0000B9B24E2000F0C8F8A1B24F20D1E705EBEE
:100F100046040025A41E04E034F8020900F0B1F8EC
:100F20006D1CB542F8D304EB4605AD1C7F1C4F4544
:100F3000EDD3C8F818A0BDE8F08700000C00001041
:100F400000C00920CC1400002020202020202020D8
:100F50002020202020202020202020200000000011
:100F60002DE9F05F1646C0F5A070841B64480D465D
:100F700098468188DDF82890A1F5094205EB08071D
:100F8000893AA9B22DD0502000F086F87F1EB9B260
:100F9000512000F081F8A1B2522000F07DF8A01994
:100FA000401E81B2532000F077F8A9B2202000F053
:100FB00073F8A1B2212000F06FF8DFF848A14FF4D8
:100FC000800B5446CAF81CB0222000F03AF84FF4C7
:100FD0000000A06108FB06F009EB40050027AD1EEC
:100FE00026E0442000F058F86FF0FF0000EB0720E7
:100FF000284381B2442000F04FF8A1B2452000F010
:101000004BF8A019401E81B2462000F045F8A9B265
:101010004E2000F041F8A1B24F20CCE7002404E0BC
:1010200035F8020900F02DF8641CB442F8D37F1C97
:101030004745F3D3CAF818B086E58004401EFDD2B8
:10104000704770B52F4C4FF40001E1618900A16138
:10105000FFF775F94FF08075E561FFF741F8A5617D
:1010600070BD70B5274C4FF40001A1618900A161EA
:10107000FFF765F94FF08075E561FFF731F8A5617D
:1010800070BD70B5FFF75BF91E4C4FF08075E561E0
:10109000FFF726F8A56170BD70B51A4C4FF48005B6
:1010A0000E46E561FFF7CDFF3046FFF7DAFFA56199
:1010B00070BD70B5134C4FF48005E561C0B2FFF709
:1010C000C0FF6800A0614000A0614100E161206CA8
:1010D00020F0FF0020640A11E2618E11E6615020C9
:1010E000401EFDD2606DA661C3B25020401EFDD2ED
:1010F000606DA26163F31F20A161A56170BD000056
:101100000C00001000C0092030B50B46014600203D
:101110002022012409E021FA02F59D4205D303FAB9
:1011200002F5491B04FA02F52844151EA2F101023A
:10113000F1DC30BD064C074D06E0E06840F00103ED
:1011400094E8070098471034AC42F6D3FEF7C2FF8C
:10115000CC290000EC2900000FB4084B10B504A9FD
:1011600002AA039800F00CF8044602A9002000F03F
:10117000A8F9204610BC5DF814FB0000C314000061
:101180002DE9FF4F8BB088460546002606E025284E
:101190000BD0DDE90D1290476D1C761C28780028D5
:1011A000F5D10FB03046BDE8F08F0024A146A2462D
:1011B0000122AE4900E0044315F8013F203B02FA4A
:1011C00003F00842F7D128782A2810D06FF02F02B8
:1011D0002878A0F13001092915D809EB890102EB23
:1011E000410144F0020400EB01096D1CF0E758F8DE
:1011F000041B5FEA010903D544F40054C9F1000956
:1012000044F002046D1C28782E2817D115F8010F20
:1012100044F004042A280ED06FF02F022878A0F1A1
:10122000300109290AD80AEB8A0102EB410100EBDF
:10123000010A6D1CF2E758F804AB6D1C28786C2885
:101240000FD006DC4C2817D068280DD06A2814D19E
:1012500004E0742810D07A280FD10DE044F4001473
:101260000AE044F4801401E044F4401469788142B7
:1012700002D104F580146D1C6D1C2878692865D096
:1012800006DC00288DD0632827D0642806D15DE0D5
:101290006E2808D073282AD0752877D0DDE90D1282
:1012A0009047761CE0E0C4F30250022809D00328DE
:1012B0000DD0D8F8001004280DD00E6008F10408F5
:1012C000D2E0D8F80010F217C1E90062F6E7D8F8CA
:1012D00000100E80F2E70E70F0E718F8041B8DF88E
:1012E000001000208DF80100EB46012003E058F8C3
:1012F00004BB4FF0FF3061074FF0000701D40AE054
:101300007F1C57450DDA8742FADB1BF807100029CE
:10131000F6D106E07F1C8742FCDB1BF80710002992
:10132000F8D1DDE90D23A9EB07008146214600F045
:10133000B1F83044C61904E0DDE90D121BF8010BC9
:1013400090477F1EF8D22146484688E058F8040BA3
:10135000C4F302514FF00A0B032900D100B2042953
:1013600000D140B2002802DA40422D2102E02105DE
:1013700005D52B218DF82410012104E006E0E107BA
:1013800010D02021F6E708AF089113E058F8040BBD
:10139000C4F302514FF00A0B032900D180B2042993
:1013A00000D1C0B20021EEE75946FFF7ADFE303163
:1013B00007F8011D0028F7D1ADEB070000F1200B65
:1013C000600702D524F4803401E04FF0010ADA45C9
:1013D00002DDAAEB0B0000E00020824600EB0B01CF
:1013E00008980144A9EB01000A90E00306D4DDE966
:1013F0000D2321460A9800F04DF806444FF00009ED
:1014000008E009A911F80900DDE90D12904709F17A
:101410000109761C08998945F3DBE0030CD5DDE969
:101420000D2321460A9800F035F8064404E0DDE972
:101430000D1230209047761CBAF10001AAF1010A82
:10144000F5DC05E0DDE90D1217F8010B9047761C7D
:10145000BBF10001ABF1010BF4DC0A982146DDE998
:101460000D2300F005F806446D1C97E609280100DD
:101470002DE9F041044600251E461746880404D491
:1014800005E039462020B0476D1C641EF9D528467A
:10149000BDE8F0812DE9F041044600251E46904646
:1014A000C80301D5302700E02027880404D505E0D3
:1014B00041463846B0476D1C641EF9D52846BDE844
:1014C000F0810A68531C0B60107070470000000028
:1014D000000000000000000000000000000000000C
:1014E00000000000000000000000000000000000FC
:1014F000000000000000000000000000000080016B
:1015000080018001800180018001800180018001D3
:1015100080018001800180010000000080018001C5
:1015200000000000000000000000000000000000BB
:10153000CC00CC00CC00CC00CC00CC0000000000E3
:10154000000000000000000000000000000000009B
:10155000000000000000000000000000000000008B
:101560000000000000000000600C600C600C300601
:101570003006FE1FFE1F300638071803FE1FFE1F31
:10158000180318038C018C018C01000000008000FE
:10159000E003F80F9C0E8C1C8C188C009800F8014E
:1015A000E007800E801C8C188C189C18B80CF00F6B
:1015B000E003800080000000000000000000000048
:1015C00000000E181B0C110C11061106110311035B
:1015D0009B018E01C038C06C60446044304430448C
:1015E0001844186C0C380000000000000000E001F6
:1015F000F0033807180618063003F001F000F80071
:101600009C310E33061E061C061C063FFC73F0219F
:1016100000000000000000000000000000000000CA
:101620000C000C000C000C000C000C000000000072
:1016300000000000000000000000000000000000AA
:101640000000000000000000000000000000000298
:1016500000038001C000C000600060003000300066
:10166000300030003000300030003000600060009A
:10167000C000C00080010003000200000000200044
:101680006000C00080018001000300030006000626
:101690000006000600060006000600060003000320
:1016A00080018001C00060002000000000000000F8
:1016B0000000000000000000C000C000D806F807CD
:1016C000E0013003380700000000000000000000C7
:1016D000000000000000000000000000000000000A
:1016E00000000000000000008001800180018001F6
:1016F0008001FC3FFC3F800180018001800180016E
:1017000000000000000000000000000000000000D9
:1017100000000000000000000000000000000000C9
:101720000000000000000000000000000000800138
:1017300080010001000180000000000000000000A6
:101740000000000000000000000000000000000099
:1017500000000000E007E0070000000000000000BB
:101760000000000000000000000000000000000079
:101770000000000000000000000000000000000069
:101780000000000000000000000000000000C00099
:10179000C000000000000000000000000000000C7D
:1017A000000C00060006000600030003000380038F
:1017B000800180018001C000C000C00060006000A6
:1017C0000000000000000000000000000000E00336
:1017D000F007380E180C0C180C180C180C180C18F4
:1017E0000C180C180C180C18180C380EF007E00325
:1017F00000000000000000000000000000000001E8
:101800008001C001F0019801880180018001800100
:1018100080018001800180018001800180018001C0
:101820000000000000000000000000000000E003D5
:10183000F80F180C0C180C1800180018000C0006F3
:1018400000038001C000600030001800FC1FFC1F76
:101850000000000000000000000000000000E001A7
:10186000F807180E0C0C0C0C000C0006C003C00787
:10187000000C001800180C180C18180CF807E003DE
:101880000000000000000000000000000000000C4C
:10189000000E000F000F800DC00C600C600C300CAF
:1018A000180C0C0CFC3FFC3F000C000C000C000C56
:1018B0000000000000000000000000000000F80F21
:1018C000F80F180018000C00EC03FC071C0E001C9D
:1018D0000018001800180C181C0C180EF807E0036C
:1018E0000000000000000000000000000000C00731
:1018F000F00F381C181818000C00CC03EC0F3C0E2D
:101900001C1C0C180C180C18181C380EF007E003DF
:101910000000000000000000000000000000FC1FAC
:10192000FC1F000C00060006000380038001C001BC
:10193000C000E00060006000700030003000300047
:101940000000000000000000000000000000E003B4
:10195000F007380E180C180C180C3806F007F007B2
:10196000180C0C180C180C180C18380CF80FE00395
:101970000000000000000000000000000000E00384
:10198000F007380E1C0C0C180C180C181C1C381EF8
:10199000F81BE0190018000C000C1C0EF807F001F1
:1019A0000000000000000000000000000000000037
:1019B0000000000000000000800180010000000025
:1019C0000000000000000000000000008001800115
:1019D0000000000000000000000000000000000007
:1019E00000000000000000008001800100000000F5
:1019F00000000000000000000000000080018001E5
:101A00000001000180000000000000000000000054
:101A10000000000000000000000000000010001C9A
:101A2000800FE003F8001800F800E003800F001CAE
:101A30000010000000000000000000000000000096
:101A4000000000000000000000000000F81F00007F
:101A500000000000F81F000000000000000000006F
:101A60000000000000000000000000000000000076
:101A70000000000000000000000000000800380026
:101A8000F001C007001F0018001FC007F001380058
:101A90000800000000000000000000000000E0035B
:101AA000F80F180C0C180C180018000C0006000396
:101AB0008001C000C000C00000000000C000C000E5
:101AC0000000000000000000000000000000000016
:101AD000E00718180420C229224A11440944094485
:101AE000094409221113E20C024004201818E007EF
:101AF0000000000000000000000000000000800363
:101B00008003C006C006C006600C600C3018301898
:101B10003018F83FF83F1C700C600C6006C006C01F
:101B20000000000000000000000000000000FC03B6
:101B3000FC0F0C0C0C180C180C180C0CFC07FC0FF0
:101B40000C180C300C300C300C300C18FC1FFC073F
:101B50000000000000000000000000000000C007BE
:101B6000F01F38381C300C700660060006000600B6
:101B700006000600060006600C701C30F01FE0072F
:101B80000000000000000000000000000000FE0354
:101B9000FE0F060E06180618063006300630063010
:101BA00006300630063006180618060EFE0FFE0335
:101BB0000000000000000000000000000000FC3FEA
:101BC000FC3F0C000C000C000C000C00FC1FFC1F68
:101BD0000C000C000C000C000C000C00FC3FFC3F47
:101BE0000000000000000000000000000000F83FBE
:101BF000F83F18001800180018001800F81FF81F08
:101C00001800180018001800180018001800180014
:101C10000000000000000000000000000000E00FD5
:101C2000F83F3C780E6006E007C00300030003FEA7
:101C300003FE03C007C006C00EC03CF0F83FE00F33
:101C400000000000000000000000000000000C3058
:101C50000C300C300C300C300C300C30FC3FFC3FA6
:101C60000C300C300C300C300C300C300C300C3094
:101C700000000000000000000000000000008001E3
:101C8000800180018001800180018001800180014C
:101C9000800180018001800180018001800180013C
:101CA000000000000000000000000000000000062E
:101CB00000060006000600060006000600060006F4
:101CC000000600060006180618063807F003E001B3
:101CD00000000000000000000000000000000630CE
:101CE0000618060C060606038601C6006600760086
:101CF000DE008E0106030606060C06180630066096
:101D000000000000000000000000000000001800BB
:101D10001800180018001800180018001800180003
:101D2000180018001800180018001800F81FF81FF5
:101D300000000000000000000000000000000EE0B5
:101D40001EF01EF01EF036D836D836D836D866CCFF
:101D500066CC66CCC6C6C6C6C6C6C6C686C386C35D
:101D600000000000000000000000000000000C3037
:101D70001C303C303C306C306C30CC30CC308C3152
:101D80000C330C330C360C360C3C0C3C0C380C3041
:101D90000000000000000000000000000000E0075C
:101DA000F81F1C380E70066003C003C003C003C0D8
:101DB00003C003C003C006600E701C38F81FE007A4
:101DC0000000000000000000000000000000FC0F08
:101DD000FC1F0C380C300C300C300C300C18FC1F75
:101DE000FC070C000C000C000C000C000C000C009C
:101DF0000000000000000000000000000000E007FC
:101E0000F81F1C380E70066003E003C003C003C057
:101E100003C003C007E006630E3F1C3CF83FE0F739
:101E200000C0000000000000000000000000FE0FE5
:101E3000FE1F06380630063006300638FE1FFE0745
:101E400006030606060C061806180630063006605D
:101E50000000000000000000000000000000E0039F
:101E6000F80F1C0C0C180C180C001C00F803E00FE9
:101E7000001E0038063006300E301C1CF80FE0073C
:101E80000000000000000000000000000000FE7FD5
:101E9000FE7F80018001800180018001800180013E
:101EA000800180018001800180018001800180012A
:101EB00000000000000000000000000000000C30E6
:101EC0000C300C300C300C300C300C300C300C3032
:101ED0000C300C300C300C300C301818F81FE007A8
:101EE000000000000000000000000000000003608F
:101EF0000630063006300C180C180C18180C180C8C
:101F0000380E30063006700760036003C001C00160
:101F1000000000000000000000000000000003605E
:101F2000C361C361C3616633663366336633663348
:101F300066336C1B6C1B6C1B2C1A3C1E380E380E47
:101F400000000000000000000000000000000FE0A2
:101F50000C7018303018700C600EC00780038003BE
:101F6000C003E006700C301C18180C300E6007E03F
:101F7000000000000000000000000000000003C09E
:101F800006600C301C383818300C6006E007C003BF
:101F90008001800180018001800180018001800139
:101FA0000000000000000000000000000000FC7FB6
:101FB000FC7F006000300018000C00060003800168
:101FC000C0006000300018000C000600FE7FFE7F9D
:101FD0000000000000000000000000000000E0031E
:101FE000E00360006000600060006000600060006E
:101FF00060006000600060006000600060006000E1
:10200000600060006000E003E003000000003000BA
:102010003000600060006000C000C000C000C0016F
:102020008001800180010003000300030006000618
:102030000000000000000000000000000000E003BD
:10204000E003000300030003000300030003000398
:102050000003000300030003000300030003000368
:10206000000300030003E003E003000000000000A1
:10207000C001C00160036003600330063006180C25
:10208000180C00000000000000000000000000002C
:102090000000000000000000000000000000000040
:1020A0000000000000000000000000000000000030
:1020B0000000000000000000000000000000FFFF22
:1020C000FFFF0000000000000000000000000C0006
:1020D0000C000C000C000C000C00000000000000C4
:1020E00000000000000000000000000000000000F0
:1020F00000000000000000000000000000000000E0
:102100000000000000000000F003F8071C0C0C0C9D
:10211000000FF00FF80C0C0C0C0C1C0FF80FF01843
:102120000000000000000000000000000000180097
:102130001800180018001800D803F80F380C1818E9
:1021400018181818181818181818380CF80FD80379
:10215000000000000000000000000000000000007F
:102160000000000000000000C003F007300E180C53
:102170001800180018001800180C300EF007C003E3
:102180000000000000000000000000000000001837
:102190000018001800180018C01BF01F301C181879
:1021A00018181818181818181818301CF01FC01B09
:1021B000000000000000000000000000000000001F
:1021C0000000000000000000C003F00F300C1818E1
:1021D000F81FF81F180018003818301CF00FC0073F
:1021E0000000000000000000000000000000800F60
:1021F000C00FC000C000C000F007F007C000C00062
:10220000C000C000C000C000C000C000C000C000CE
:1022100000000000000000000000000000000000BE
:102220000000000000000000E00DF80F180E0C0C7C
:102230000C0C0C0C0C0C0C0C0C0C180EF80FE00D0C
:10224000000C0C0C1C06F807F00100000000180040
:102250001800180018001800D807F80F381C1818B4
:1022600018181818181818181818181818181818EE
:102270000000000000000000000000000000C0009E
:10228000C000000000000000C000C000C000C0008E
:10229000C000C000C000C000C000C000C000C0003E
:1022A0000000000000000000000000000000C0006E
:1022B000C000000000000000C000C000C000C0005E
:1022C000C000C000C000C000C000C000C000C0000E
:1022D000C000C000C000F8007800000000000C0042
:1022E0000C000C000C000C000C0C0C060C038C01F8
:1022F000CC006C00FC009C018C030C030C060C0C45
:102300000000000000000000000000000000C0000D
:10231000C000C000C000C000C000C000C000C000BD
:10232000C000C000C000C000C000C000C000C000AD
:10233000000000000000000000000000000000009D
:1023400000000000000000007C3CFF7EC7E383C16A
:1023500083C183C183C183C183C183C183C183C15D
:10236000000000000000000000000000000000006D
:1023700000000000000000009807F80F381C181833
:1023800018181818181818181818181818181818CD
:10239000000000000000000000000000000000003D
:1023A0000000000000000000C003F00F300C1818FF
:1023B00018181818181818181818300CF00FC0032F
:1023C000000000000000000000000000000000000D
:1023D0000000000000000000D803F80F380C1818A7
:1023E00018181818181818181818380CF80FD803D7
:1023F0001800180018001800180000000000000065
:102400000000000000000000C01BF01F301C181866
:1024100018181818181818181818301CF01FC01B96
:102420000018001800180018001800000000000034
:102430000000000000000000B007F0037000300052
:10244000300030003000300030003000300030000C
:10245000000000000000000000000000000000007C
:102460000000000000000000E003F003380E180C2C
:102470003800F003C007000C180C380EF007E0031A
:10248000000000000000000000000000000000004C
:102490008000C000C000C000F007F007C000C0000E
:1024A000C000C000C000C000C000C000C00780075E
:1024B000000000000000000000000000000000001C
:1024C000000000000000000018181818181818184C
:1024D00018181818181818181818381CF01FE019B0
:1024E00000000000000000000000000000000000EC
:1024F00000000000000000000C18180C180C180C4C
:10250000300630063006600360036003C001C0017E
:1025100000000000000000000000000000000000BB
:102520000000000000000000C141C141C3616363BD
:10253000636363633636363636361C1C1C1C1C1C23
:10254000000000000000000000000000000000008B
:1025500000000000000000001C38381C300C600631
:10256000C003C003C003C0036006300C381C1C3815
:10257000000000000000000000000000000000005B
:1025800000000000000000001830301830187018EB
:10259000600C600CE00CC006C00680038003800362
:1025A00080018001C001F000700000000000000008
:1025B0000000000000000000FC1FFC1F000C0006D3
:1025C00000038001C000600030001800FC1FFC1FE9
:1025D00000000000000000000000000000000003F8
:1025E0008001C000C000C000C000C000C00060008A
:1025F0006000300060004000C000C000C000C000AB
:10260000C000C00080010003000000000000800145
:1026100080018001800180018001800180018001B2
:1026200080018001800180018001800180018001A2
:1026300080018001800180018001000000006000B5
:10264000C000C00180018001800180018001000381
:102650000003000600030001800180018001800169
:1026600080018001C0006000000000000000000048
:10267000000000000000000000000000F010F81F43
:10268000080F000000000000000000000000000033
:10269000000000000000000000000000000000003A
:1026A000000000000000000000000000000000002A
:1026B000000000000000000000000000000000001A
:1026C000000000000000000000000000000000000A
:1026D000000000000000C003300C0810042004209B
:1026E0000240024002400240024004200420081040
:1026F000300CC003000000000000000000000000DB
:10270000000000000000C003F00FF81FFC3FFC3F7A
:10271000FE7FFE7FFE7FFE7FFE7FFC3FFC3FF81FBB
:10272000F00FC003000000000000000000000000E7
:1027300000000000000000000000E007F00F181883
:1027400018181818181818181818F00FE0070000B3
:102750000000000000000000000000000000000079
:1027600000000000000000000000E007F00FF81F6C
:10277000F81FF81FF81FF81FF81FF00FE007000000
:102780000000000000000000000000000000000049
:102790000000000000000000000000000000000039
:1027A000000000008001C0036006300C18181818E3
:1027B000F81FF81F000000000000000000000000EB
:1027C0000000000000000000000000000000000009
:1027D000000000008001C003E007F00FF81FF81FA1
:1027E000F81FF81F000000000000000000000000BB
:1027F00000000000F81FF81F18181818300C6006A9
:10280000C003800100000000000000000000000084
:1028100000000000000000000000000000000000B8
:1028200000000000F81FF81FF81FF81FF00FE00766
:10283000C003800100000000000000000000000054
:102840000000000000000000000000000000000088
:1028500000000000000000000000E001F00198010D
:102860008C01860186018C019801F001E0010000D5
:102870000000000000000000000000000000000058
:1028800000000000000000000000E001F001F8017D
:10289000FC01FE01FE01FC01F801F001E001000075
:1028A0000000000000000000000000000000000028
:1028B000000000000000000000008007800F801969
:1028C00080318061806180318019800F8007000035
:1028D00000000000000000000000000000000000F8
:1028E000000000000000000000008007800F801F33
:1028F000803F807F807F803F801F800F80070000A7
:102900000000000000000000000000000000C00106
:1029100020022002400130060808080808080808BC
:1029200008080808080820022002200220022002CD
:102930002002200220022002200200000000C0012C
:10294000E003E003C001F007D80DD80DD80DD80D75
:10295000D80DD80DD80D60036003600360036003D9
:102960006003600360036003600300000000C001B7
:102970002002200240013006080808080808041058
:10298000022002204001200220021004080808084A
:102990000410041004200440000000000000C001E6
:1029A000E003E003C001F007D80DD80DD80DCC1915
:1029B000C631C261C001600360037006380C180C98
:1029C0000C180C180C300C6000000000EC29000002
:1029D0000000001014000000DC020000002A0000CB
:1029E0001400001004020000EC02000000093D0089
:1029F00000000000000000000000FFFF00000000D9
:04000005000000CD2A
:00000001FF
